:03000000020003F8
:1000030090004712001890006712001890008712A2
:1000130000180200037A0F7900780075A00075B00C
:1000230000E893F5A008E893F5B089900912003E23
:1000330012003E08E8B420E3DADD227E027FF8DF17
:10004300FEDEFA22007827C01248115087FC415087
:100053004248140613F82248E24823F8224822486B
:1000630023F8020800003FF008200440028001004A
:1000730006C01830E10E01001FF00100010001006D
:100083007FFC0000101010101010FEFE1010101056
:100093007C7C000000007C7C44444444444444444D
:0400A3007C7C4444D9
:00000001FF
